{
	"data": {
		"bytecode": {
			"linkReferences": {},
			"object": "608060405234801561000f575f80fd5b50604051610fed380380610fed83398101604081905261002e916100d1565b338061005357604051631e4fbdf760e01b81525f600482015260240160405180910390fd5b61005c81610082565b50600180546001600160a01b0319166001600160a01b03929092169190911790556100fe565b5f80546001600160a01b038381166001600160a01b0319831681178455604051919092169283917f8be0079c531659141344cd1fd0a4f28419497f9722a3daafe3b4186f6b6457e09190a35050565b5f602082840312156100e1575f80fd5b81516001600160a01b03811681146100f7575f80fd5b9392505050565b610ee28061010b5f395ff3fe60806040526004361061009a575f3560e01c8063a7e7664411610062578063a7e7664414610229578063b3ea02341461024c578063b821da1b1461026b578063d5563f311461028a578063f20e5e35146102a9578063f2fde38b14610326575f80fd5b80631c5e1e1c1461009e578063571a26a014610136578063715018a6146101d05780638da5cb5b146101e65780639a3b26f614610216575b5f80fd5b3480156100a9575f80fd5b5061010a6100b8366004610c51565b5f9182526003602090815260408084209284526004909201815291819020815160608101835281546001600160a01b0316808252600183015494820185905260029092015460ff161515920182905292565b604080516001600160a01b03909416845260208401929092521515908201526060015b60405180910390f35b348015610141575f80fd5b50610195610150366004610c71565b600360208190525f91825260409091208054600182015460028301549383015460059093015491936001600160a01b03821693600160a01b90920460ff169290919086565b604080519687526001600160a01b039095166020870152921515938501939093526060840152608083019190915260a082015260c00161012d565b3480156101db575f80fd5b506101e4610345565b005b3480156101f1575f80fd5b505f546001600160a01b03165b6040516001600160a01b03909116815260200161012d565b6101e4610224366004610c71565b610358565b348015610234575f80fd5b5061023e60025481565b60405190815260200161012d565b348015610257575f80fd5b506101fe610266366004610c71565b6105c8565b348015610276575f80fd5b506101e4610285366004610c51565b610644565b348015610295575f80fd5b506101e46102a4366004610c71565b61094a565b3480156102b4575f80fd5b506102f86102c3366004610c71565b5f9081526003602052604090208054600182015460029092015490926001600160a01b03831692600160a01b900460ff169190565b604080519485526001600160a01b03909316602085015290151591830191909152606082015260800161012d565b348015610331575f80fd5b506101e4610340366004610c9c565b610b99565b61034d610bd6565b6103565f610c02565b565b5f8181526003602052604090206001810154600160a01b900460ff166103bd5760405162461bcd60e51b815260206004820152601560248201527441756374696f6e206973206e6f742061637469766560581b60448201526064015b60405180910390fd5b60018101546001600160a01b0316331461042f5760405162461bcd60e51b815260206004820152602d60248201527f4f6e6c7920746865206d616e7566616374757265722063616e2073656c65637460448201526c081d1a194818995cdd08189a59609a1b60648201526084016103b4565b60028101545f81900361047a5760405162461bcd60e51b8152602060048201526013602482015272139bc81d985b1a5908189a591cc8199bdd5b99606a1b60448201526064016103b4565b5f8181526004830160205260409020600181015434146104f35760405162461bcd60e51b815260206004820152602e60248201527f416d6f756e742073656e7420646f6573206e6f74206d6174636820746865206260448201526d195cdd08189a5908185b5bdd5b9d60921b60648201526084016103b4565b5f828152600484016020526040808220600201805460ff19166001908117909155858101805460ff60a01b1916905583549084015491516001600160a01b039091169282156108fc02929190818181858888f1935050505015801561055a573d5f803e3d5ffd5b505f82815260048401602090815260409182902080546001909101548351888152928301869052928201929092526001600160a01b03909116907f952073fb30d82e96c458a6ceeb9d6d5fcacd311f5ad432930da30c558580cecb906060015b60405180910390a250505050565b5f8181526003602052604081206002810154820361061f5760405162461bcd60e51b8152602060048201526014602482015273139bc81dda5b9b9a5b99c810d05088199bdd5b9960621b60448201526064016103b4565b60028101545f908152600490910160205260409020546001600160a01b031692915050565b600154604051630cf8480360e21b81523360048201526001600160a01b03909116906333e1200c90602401602060405180830381865afa15801561068a573d5f803e3d5ffd5b505050506040513d601f19601f820116820180604052508101906106ae9190610cd2565b61070d5760405162461bcd60e51b815260206004820152602a60248201527f4f6e6c79207265676973746572656420434142732063616e2072756e207468696044820152693990333ab731ba34b7b760b11b60648201526084016103b4565b600154604051633f8768f360e11b81523360048201525f916001600160a01b031690637f0ed1e6906024015f60405180830381865afa158015610752573d5f803e3d5ffd5b505050506040513d5f823e601f3d908101601f191682016040526107799190810190610d8a565b945050505050806107c45760405162461bcd60e51b815260206004820152601560248201527410d050881a5cc81b9bdd081858d8dc99591a5d1959605a1b60448201526064016103b4565b5f8381526003602052604090206001810154600160a01b900460ff166108245760405162461bcd60e51b815260206004820152601560248201527441756374696f6e206973206e6f742061637469766560581b60448201526064016103b4565b5f831161086a5760405162461bcd60e51b8152602060048201526014602482015273115b9d195c8818481d985b1a5908185b5bdd5b9d60621b60448201526064016103b4565b600381018054905f61087b83610e1d565b90915550506040805160608101825233815260208082018681525f838501818152600387015482526004870190935293909320915182546001600160a01b0319166001600160a01b039091161782559151600182015590516002909101805460ff191691151591909117905560058101548310156109055760058101839055600381015460028201555b6003810154604080518681526020810192909252810184905233907f68ca22619736ce52a19d1b37cfeea709881038c1f6c94062b4cf60527b5e3a12906060016105ba565b60015460405163aa7e41c560e01b81523360048201526001600160a01b039091169063aa7e41c590602401602060405180830381865afa158015610990573d5f803e3d5ffd5b505050506040513d601f19601f820116820180604052508101906109b49190610cd2565b610a1c5760405162461bcd60e51b815260206004820152603360248201527f4f6e6c792072656769737465726564206d616e756661637475726572732063616044820152723710393ab7103a3434b990333ab731ba34b7b760691b60648201526084016103b4565b600154604051634da3b9c760e01b8152600481018390525f916001600160a01b031690634da3b9c7906024015f60405180830381865afa158015610a62573d5f803e3d5ffd5b505050506040513d5f823e601f3d908101601f19168201604052610a899190810190610e41565b5090925050506001600160a01b0381163314610afe5760405162461bcd60e51b815260206004820152602e60248201527f596f7520617265206e6f7420746865206d616e756661637475726572206f662060448201526d1d1a1a5cc8195c5d5a5c1b595b9d60921b60648201526084016103b4565b60028054905f610b0d83610e1d565b9091555050600280545f9081526003602090815260409182902085815560018101805460ff60a01b19339081166001600160a81b031990921691909117600160a01b179091555f1960058301559354835190815291820186905292917f9f73aaf9708695add4256f1c2d3a7806702de1d16fe47ffbe80cb5df9f6d8d20910160405180910390a2505050565b610ba1610bd6565b6001600160a01b038116610bca57604051631e4fbdf760e01b81525f60048201526024016103b4565b610bd381610c02565b50565b5f546001600160a01b031633146103565760405163118cdaa760e01b81523360048201526024016103b4565b5f80546001600160a01b038381166001600160a01b0319831681178455604051919092169283917f8be0079c531659141344cd1fd0a4f28419497f9722a3daafe3b4186f6b6457e09190a35050565b5f8060408385031215610c62575f80fd5b50508035926020909101359150565b5f60208284031215610c81575f80fd5b5035919050565b6001600160a01b0381168114610bd3575f80fd5b5f60208284031215610cac575f80fd5b8135610cb781610c88565b9392505050565b80518015158114610ccd575f80fd5b919050565b5f60208284031215610ce2575f80fd5b610cb782610cbe565b634e487b7160e01b5f52604160045260245ffd5b5f82601f830112610d0e575f80fd5b815167ffffffffffffffff811115610d2857610d28610ceb565b604051601f8201601f19908116603f0116810167ffffffffffffffff81118282101715610d5757610d57610ceb565b604052818152838201602001851015610d6e575f80fd5b8160208501602083015e5f918101602001919091529392505050565b5f805f805f60a08688031215610d9e575f80fd5b855167ffffffffffffffff811115610db4575f80fd5b610dc088828901610cff565b9550506020860151610dd181610c88565b604087015190945067ffffffffffffffff811115610ded575f80fd5b610df988828901610cff565b60608801519094509250610e11905060808701610cbe565b90509295509295909350565b5f60018201610e3a57634e487b7160e01b5f52601160045260245ffd5b5060010190565b5f805f8060808587031215610e54575f80fd5b845160028110610e62575f80fd5b6020860151909450610e7381610c88565b604086015190935067ffffffffffffffff811115610e8f575f80fd5b610e9b87828801610cff565b60609690960151949793965050505056fea26469706673582212202ceab8e3602feee3392ef49ddf2366415ac5929f92cf9ecfabdeeaaea53f070964736f6c634300081a0033",
			"opcodes": "PUSH1 0x80 PUSH1 0x40 MSTORE CALLVALUE DUP1 ISZERO PUSH2 0xF JUMPI PUSH0 DUP1 REVERT JUMPDEST POP PUSH1 0x40 MLOAD PUSH2 0xFED CODESIZE SUB DUP1 PUSH2 0xFED DUP4 CODECOPY DUP2 ADD PUSH1 0x40 DUP2 SWAP1 MSTORE PUSH2 0x2E SWAP2 PUSH2 0xD1 JUMP JUMPDEST CALLER DUP1 PUSH2 0x53 JUMPI PUSH1 0x40 MLOAD PUSH4 0x1E4FBDF7 PUSH1 0xE0 SHL DUP2 MSTORE PUSH0 PUSH1 0x4 DUP3 ADD MSTORE PUSH1 0x24 ADD PUSH1 0x40 MLOAD DUP1 SWAP2 SUB SWAP1 REVERT JUMPDEST PUSH2 0x5C DUP2 PUSH2 0x82 JUMP JUMPDEST POP PUSH1 0x1 DUP1 SLOAD PUSH1 0x1 PUSH1 0x1 PUSH1 0xA0 SHL SUB NOT AND PUSH1 0x1 PUSH1 0x1 PUSH1 0xA0 SHL SUB SWAP3 SWAP1 SWAP3 AND SWAP2 SWAP1 SWAP2 OR SWAP1 SSTORE PUSH2 0xFE JUMP JUMPDEST PUSH0 DUP1 SLOAD PUSH1 0x1 PUSH1 0x1 PUSH1 0xA0 SHL SUB DUP4 DUP2 AND PUSH1 0x1 PUSH1 0x1 PUSH1 0xA0 SHL SUB NOT DUP4 AND DUP2 OR DUP5 SSTORE PUSH1 0x40 MLOAD SWAP2 SWAP1 SWAP3 AND SWAP3 DUP4 SWAP2 PUSH32 0x8BE0079C531659141344CD1FD0A4F28419497F9722A3DAAFE3B4186F6B6457E0 SWAP2 SWAP1 LOG3 POP POP JUMP JUMPDEST PUSH0 PUSH1 0x20 DUP3 DUP5 SUB SLT ISZERO PUSH2 0xE1 JUMPI PUSH0 DUP1 REVERT JUMPDEST DUP2 MLOAD PUSH1 0x1 PUSH1 0x1 PUSH1 0xA0 SHL SUB DUP2 AND DUP2 EQ PUSH2 0xF7 JUMPI PUSH0 DUP1 REVERT JUMPDEST SWAP4 SWAP3 POP POP POP JUMP JUMPDEST PUSH2 0xEE2 DUP1 PUSH2 0x10B PUSH0 CODECOPY PUSH0 RETURN INVALID PUSH1 0x80 PUSH1 0x40 MSTORE PUSH1 0x4 CALLDATASIZE LT PUSH2 0x9A JUMPI PUSH0 CALLDATALOAD PUSH1 0xE0 SHR DUP1 PUSH4 0xA7E76644 GT PUSH2 0x62 JUMPI DUP1 PUSH4 0xA7E76644 EQ PUSH2 0x229 JUMPI DUP1 PUSH4 0xB3EA0234 EQ PUSH2 0x24C JUMPI DUP1 PUSH4 0xB821DA1B EQ PUSH2 0x26B JUMPI DUP1 PUSH4 0xD5563F31 EQ PUSH2 0x28A JUMPI DUP1 PUSH4 0xF20E5E35 EQ PUSH2 0x2A9 JUMPI DUP1 PUSH4 0xF2FDE38B EQ PUSH2 0x326 JUMPI PUSH0 DUP1 REVERT JUMPDEST DUP1 PUSH4 0x1C5E1E1C EQ PUSH2 0x9E JUMPI DUP1 PUSH4 0x571A26A0 EQ PUSH2 0x136 JUMPI DUP1 PUSH4 0x715018A6 EQ PUSH2 0x1D0 JUMPI DUP1 PUSH4 0x8DA5CB5B EQ PUSH2 0x1E6 JUMPI DUP1 PUSH4 0x9A3B26F6 EQ PUSH2 0x216 JUMPI JUMPDEST PUSH0 DUP1 REVERT JUMPDEST CALLVALUE DUP1 ISZERO PUSH2 0xA9 JUMPI PUSH0 DUP1 REVERT JUMPDEST POP PUSH2 0x10A PUSH2 0xB8 CALLDATASIZE PUSH1 0x4 PUSH2 0xC51 JUMP JUMPDEST PUSH0 SWAP2 DUP3 MSTORE PUSH1 0x3 PUSH1 0x20 SWAP1 DUP2 MSTORE PUSH1 0x40 DUP1 DUP5 KECCAK256 SWAP3 DUP5 MSTORE PUSH1 0x4 SWAP1 SWAP3 ADD DUP2 MSTORE SWAP2 DUP2 SWAP1 KECCAK256 DUP2 MLOAD PUSH1 0x60 DUP2 ADD DUP4 MSTORE DUP2 SLOAD PUSH1 0x1 PUSH1 0x1 PUSH1 0xA0 SHL SUB AND DUP1 DUP3 MSTORE PUSH1 0x1 DUP4 ADD SLOAD SWAP5 DUP3 ADD DUP6 SWAP1 MSTORE PUSH1 0x2 SWAP1 SWAP3 ADD SLOAD PUSH1 0xFF AND ISZERO ISZERO SWAP3 ADD DUP3 SWAP1 MSTORE SWAP3 JUMP JUMPDEST PUSH1 0x40 DUP1 MLOAD PUSH1 0x1 PUSH1 0x1 PUSH1 0xA0 SHL SUB SWAP1 SWAP5 AND DUP5 MSTORE PUSH1 0x20 DUP5 ADD SWAP3 SWAP1 SWAP3 MSTORE ISZERO ISZERO SWAP1 DUP3 ADD MSTORE PUSH1 0x60 ADD JUMPDEST PUSH1 0x40 MLOAD DUP1 SWAP2 SUB SWAP1 RETURN JUMPDEST CALLVALUE DUP1 ISZERO PUSH2 0x141 JUMPI PUSH0 DUP1 REVERT JUMPDEST POP PUSH2 0x195 PUSH2 0x150 CALLDATASIZE PUSH1 0x4 PUSH2 0xC71 JUMP JUMPDEST PUSH1 0x3 PUSH1 0x20 DUP2 SWAP1 MSTORE PUSH0 SWAP2 DUP3 MSTORE PUSH1 0x40 SWAP1 SWAP2 KECCAK256 DUP1 SLOAD PUSH1 0x1 DUP3 ADD SLOAD PUSH1 0x2 DUP4 ADD SLOAD SWAP4 DUP4 ADD SLOAD PUSH1 0x5 SWAP1 SWAP4 ADD SLOAD SWAP2 SWAP4 PUSH1 0x1 PUSH1 0x1 PUSH1 0xA0 SHL SUB DUP3 AND SWAP4 PUSH1 0x1 PUSH1 0xA0 SHL SWAP1 SWAP3 DIV PUSH1 0xFF AND SWAP3 SWAP1 SWAP2 SWAP1 DUP7 JUMP JUMPDEST PUSH1 0x40 DUP1 MLOAD SWAP7 DUP8 MSTORE PUSH1 0x1 PUSH1 0x1 PUSH1 0xA0 SHL SUB SWAP1 SWAP6 AND PUSH1 0x20 DUP8 ADD MSTORE SWAP3 ISZERO ISZERO SWAP4 DUP6 ADD SWAP4 SWAP1 SWAP4 MSTORE PUSH1 0x60 DUP5 ADD MSTORE PUSH1 0x80 DUP4 ADD SWAP2 SWAP1 SWAP2 MSTORE PUSH1 0xA0 DUP3 ADD MSTORE PUSH1 0xC0 ADD PUSH2 0x12D JUMP JUMPDEST CALLVALUE DUP1 ISZERO PUSH2 0x1DB JUMPI PUSH0 DUP1 REVERT JUMPDEST POP PUSH2 0x1E4 PUSH2 0x345 JUMP JUMPDEST STOP JUMPDEST CALLVALUE DUP1 ISZERO PUSH2 0x1F1 JUMPI PUSH0 DUP1 REVERT JUMPDEST POP PUSH0 SLOAD PUSH1 0x1 PUSH1 0x1 PUSH1 0xA0 SHL SUB AND JUMPDEST PUSH1 0x40 MLOAD PUSH1 0x1 PUSH1 0x1 PUSH1 0xA0 SHL SUB SWAP1 SWAP2 AND DUP2 MSTORE PUSH1 0x20 ADD PUSH2 0x12D JUMP JUMPDEST PUSH2 0x1E4 PUSH2 0x224 CALLDATASIZE PUSH1 0x4 PUSH2 0xC71 JUMP JUMPDEST PUSH2 0x358 JUMP JUMPDEST CALLVALUE DUP1 ISZERO PUSH2 0x234 JUMPI PUSH0 DUP1 REVERT JUMPDEST POP PUSH2 0x23E PUSH1 0x2 SLOAD DUP2 JUMP JUMPDEST PUSH1 0x40 MLOAD SWAP1 DUP2 MSTORE PUSH1 0x20 ADD PUSH2 0x12D JUMP JUMPDEST CALLVALUE DUP1 ISZERO PUSH2 0x257 JUMPI PUSH0 DUP1 REVERT JUMPDEST POP PUSH2 0x1FE PUSH2 0x266 CALLDATASIZE PUSH1 0x4 PUSH2 0xC71 JUMP JUMPDEST PUSH2 0x5C8 JUMP JUMPDEST CALLVALUE DUP1 ISZERO PUSH2 0x276 JUMPI PUSH0 DUP1 REVERT JUMPDEST POP PUSH2 0x1E4 PUSH2 0x285 CALLDATASIZE PUSH1 0x4 PUSH2 0xC51 JUMP JUMPDEST PUSH2 0x644 JUMP JUMPDEST CALLVALUE DUP1 ISZERO PUSH2 0x295 JUMPI PUSH0 DUP1 REVERT JUMPDEST POP PUSH2 0x1E4 PUSH2 0x2A4 CALLDATASIZE PUSH1 0x4 PUSH2 0xC71 JUMP JUMPDEST PUSH2 0x94A JUMP JUMPDEST CALLVALUE DUP1 ISZERO PUSH2 0x2B4 JUMPI PUSH0 DUP1 REVERT JUMPDEST POP PUSH2 0x2F8 PUSH2 0x2C3 CALLDATASIZE PUSH1 0x4 PUSH2 0xC71 JUMP JUMPDEST PUSH0 SWAP1 DUP2 MSTORE PUSH1 0x3 PUSH1 0x20 MSTORE PUSH1 0x40 SWAP1 KECCAK256 DUP1 SLOAD PUSH1 0x1 DUP3 ADD SLOAD PUSH1 0x2 SWAP1 SWAP3 ADD SLOAD SWAP1 SWAP3 PUSH1 0x1 PUSH1 0x1 PUSH1 0xA0 SHL SUB DUP4 AND SWAP3 PUSH1 0x1 PUSH1 0xA0 SHL SWAP1 DIV PUSH1 0xFF AND SWAP2 SWAP1 JUMP JUMPDEST PUSH1 0x40 DUP1 MLOAD SWAP5 DUP6 MSTORE PUSH1 0x1 PUSH1 0x1 PUSH1 0xA0 SHL SUB SWAP1 SWAP4 AND PUSH1 0x20 DUP6 ADD MSTORE SWAP1 ISZERO ISZERO SWAP2 DUP4 ADD SWAP2 SWAP1 SWAP2 MSTORE PUSH1 0x60 DUP3 ADD MSTORE PUSH1 0x80 ADD PUSH2 0x12D JUMP JUMPDEST CALLVALUE DUP1 ISZERO PUSH2 0x331 JUMPI PUSH0 DUP1 REVERT JUMPDEST POP PUSH2 0x1E4 PUSH2 0x340 CALLDATASIZE PUSH1 0x4 PUSH2 0xC9C JUMP JUMPDEST PUSH2 0xB99 JUMP JUMPDEST PUSH2 0x34D PUSH2 0xBD6 JUMP JUMPDEST PUSH2 0x356 PUSH0 PUSH2 0xC02 JUMP JUMPDEST JUMP JUMPDEST PUSH0 DUP2 DUP2 MSTORE PUSH1 0x3 PUSH1 0x20 MSTORE PUSH1 0x40 SWAP1 KECCAK256 PUSH1 0x1 DUP2 ADD SLOAD PUSH1 0x1 PUSH1 0xA0 SHL SWAP1 DIV PUSH1 0xFF AND PUSH2 0x3BD JUMPI PUSH1 0x40 MLOAD PUSH3 0x461BCD PUSH1 0xE5 SHL DUP2 MSTORE PUSH1 0x20 PUSH1 0x4 DUP3 ADD MSTORE PUSH1 0x15 PUSH1 0x24 DUP3 ADD MSTORE PUSH21 0x41756374696F6E206973206E6F7420616374697665 PUSH1 0x58 SHL PUSH1 0x44 DUP3 ADD MSTORE PUSH1 0x64 ADD JUMPDEST PUSH1 0x40 MLOAD DUP1 SWAP2 SUB SWAP1 REVERT JUMPDEST PUSH1 0x1 DUP2 ADD SLOAD PUSH1 0x1 PUSH1 0x1 PUSH1 0xA0 SHL SUB AND CALLER EQ PUSH2 0x42F JUMPI PUSH1 0x40 MLOAD PUSH3 0x461BCD PUSH1 0xE5 SHL DUP2 MSTORE PUSH1 0x20 PUSH1 0x4 DUP3 ADD MSTORE PUSH1 0x2D PUSH1 0x24 DUP3 ADD MSTORE PUSH32 0x4F6E6C7920746865206D616E7566616374757265722063616E2073656C656374 PUSH1 0x44 DUP3 ADD MSTORE PUSH13 0x81D1A194818995CDD08189A59 PUSH1 0x9A SHL PUSH1 0x64 DUP3 ADD MSTORE PUSH1 0x84 ADD PUSH2 0x3B4 JUMP JUMPDEST PUSH1 0x2 DUP2 ADD SLOAD PUSH0 DUP2 SWAP1 SUB PUSH2 0x47A JUMPI PUSH1 0x40 MLOAD PUSH3 0x461BCD PUSH1 0xE5 SHL DUP2 MSTORE PUSH1 0x20 PUSH1 0x4 DUP3 ADD MSTORE PUSH1 0x13 PUSH1 0x24 DUP3 ADD MSTORE PUSH19 0x139BC81D985B1A5908189A591CC8199BDD5B99 PUSH1 0x6A SHL PUSH1 0x44 DUP3 ADD MSTORE PUSH1 0x64 ADD PUSH2 0x3B4 JUMP JUMPDEST PUSH0 DUP2 DUP2 MSTORE PUSH1 0x4 DUP4 ADD PUSH1 0x20 MSTORE PUSH1 0x40 SWAP1 KECCAK256 PUSH1 0x1 DUP2 ADD SLOAD CALLVALUE EQ PUSH2 0x4F3 JUMPI PUSH1 0x40 MLOAD PUSH3 0x461BCD PUSH1 0xE5 SHL DUP2 MSTORE PUSH1 0x20 PUSH1 0x4 DUP3 ADD MSTORE PUSH1 0x2E PUSH1 0x24 DUP3 ADD MSTORE PUSH32 0x416D6F756E742073656E7420646F6573206E6F74206D61746368207468652062 PUSH1 0x44 DUP3 ADD MSTORE PUSH14 0x195CDD08189A5908185B5BDD5B9D PUSH1 0x92 SHL PUSH1 0x64 DUP3 ADD MSTORE PUSH1 0x84 ADD PUSH2 0x3B4 JUMP JUMPDEST PUSH0 DUP3 DUP2 MSTORE PUSH1 0x4 DUP5 ADD PUSH1 0x20 MSTORE PUSH1 0x40 DUP1 DUP3 KECCAK256 PUSH1 0x2 ADD DUP1 SLOAD PUSH1 0xFF NOT AND PUSH1 0x1 SWAP1 DUP2 OR SWAP1 SWAP2 SSTORE DUP6 DUP2 ADD DUP1 SLOAD PUSH1 0xFF PUSH1 0xA0 SHL NOT AND SWAP1 SSTORE DUP4 SLOAD SWAP1 DUP5 ADD SLOAD SWAP2 MLOAD PUSH1 0x1 PUSH1 0x1 PUSH1 0xA0 SHL SUB SWAP1 SWAP2 AND SWAP3 DUP3 ISZERO PUSH2 0x8FC MUL SWAP3 SWAP2 SWAP1 DUP2 DUP2 DUP2 DUP6 DUP9 DUP9 CALL SWAP4 POP POP POP POP ISZERO DUP1 ISZERO PUSH2 0x55A JUMPI RETURNDATASIZE PUSH0 DUP1 RETURNDATACOPY RETURNDATASIZE PUSH0 REVERT JUMPDEST POP PUSH0 DUP3 DUP2 MSTORE PUSH1 0x4 DUP5 ADD PUSH1 0x20 SWAP1 DUP2 MSTORE PUSH1 0x40 SWAP2 DUP3 SWAP1 KECCAK256 DUP1 SLOAD PUSH1 0x1 SWAP1 SWAP2 ADD SLOAD DUP4 MLOAD DUP9 DUP2 MSTORE SWAP3 DUP4 ADD DUP7 SWAP1 MSTORE SWAP3 DUP3 ADD SWAP3 SWAP1 SWAP3 MSTORE PUSH1 0x1 PUSH1 0x1 PUSH1 0xA0 SHL SUB SWAP1 SWAP2 AND SWAP1 PUSH32 0x952073FB30D82E96C458A6CEEB9D6D5FCACD311F5AD432930DA30C558580CECB SWAP1 PUSH1 0x60 ADD JUMPDEST PUSH1 0x40 MLOAD DUP1 SWAP2 SUB SWAP1 LOG2 POP POP POP POP JUMP JUMPDEST PUSH0 DUP2 DUP2 MSTORE PUSH1 0x3 PUSH1 0x20 MSTORE PUSH1 0x40 DUP2 KECCAK256 PUSH1 0x2 DUP2 ADD SLOAD DUP3 SUB PUSH2 0x61F JUMPI PUSH1 0x40 MLOAD PUSH3 0x461BCD PUSH1 0xE5 SHL DUP2 MSTORE PUSH1 0x20 PUSH1 0x4 DUP3 ADD MSTORE PUSH1 0x14 PUSH1 0x24 DUP3 ADD MSTORE PUSH20 0x139BC81DDA5B9B9A5B99C810D05088199BDD5B99 PUSH1 0x62 SHL PUSH1 0x44 DUP3 ADD MSTORE PUSH1 0x64 ADD PUSH2 0x3B4 JUMP JUMPDEST PUSH1 0x2 DUP2 ADD SLOAD PUSH0 SWAP1 DUP2 MSTORE PUSH1 0x4 SWAP1 SWAP2 ADD PUSH1 0x20 MSTORE PUSH1 0x40 SWAP1 KECCAK256 SLOAD PUSH1 0x1 PUSH1 0x1 PUSH1 0xA0 SHL SUB AND SWAP3 SWAP2 POP POP JUMP JUMPDEST PUSH1 0x1 SLOAD PUSH1 0x40 MLOAD PUSH4 0xCF84803 PUSH1 0xE2 SHL DUP2 MSTORE CALLER PUSH1 0x4 DUP3 ADD MSTORE PUSH1 0x1 PUSH1 0x1 PUSH1 0xA0 SHL SUB SWAP1 SWAP2 AND SWAP1 PUSH4 0x33E1200C SWAP1 PUSH1 0x24 ADD PUSH1 0x20 PUSH1 0x40 MLOAD DUP1 DUP4 SUB DUP2 DUP7 GAS STATICCALL ISZERO DUP1 ISZERO PUSH2 0x68A JUMPI RETURNDATASIZE PUSH0 DUP1 RETURNDATACOPY RETURNDATASIZE PUSH0 REVERT JUMPDEST POP POP POP POP PUSH1 0x40 MLOAD RETURNDATASIZE PUSH1 0x1F NOT PUSH1 0x1F DUP3 ADD AND DUP3 ADD DUP1 PUSH1 0x40 MSTORE POP DUP2 ADD SWAP1 PUSH2 0x6AE SWAP2 SWAP1 PUSH2 0xCD2 JUMP JUMPDEST PUSH2 0x70D JUMPI PUSH1 0x40 MLOAD PUSH3 0x461BCD PUSH1 0xE5 SHL DUP2 MSTORE PUSH1 0x20 PUSH1 0x4 DUP3 ADD MSTORE PUSH1 0x2A PUSH1 0x24 DUP3 ADD MSTORE PUSH32 0x4F6E6C79207265676973746572656420434142732063616E2072756E20746869 PUSH1 0x44 DUP3 ADD MSTORE PUSH10 0x3990333AB731BA34B7B7 PUSH1 0xB1 SHL PUSH1 0x64 DUP3 ADD MSTORE PUSH1 0x84 ADD PUSH2 0x3B4 JUMP JUMPDEST PUSH1 0x1 SLOAD PUSH1 0x40 MLOAD PUSH4 0x3F8768F3 PUSH1 0xE1 SHL DUP2 MSTORE CALLER PUSH1 0x4 DUP3 ADD MSTORE PUSH0 SWAP2 PUSH1 0x1 PUSH1 0x1 PUSH1 0xA0 SHL SUB AND SWAP1 PUSH4 0x7F0ED1E6 SWAP1 PUSH1 0x24 ADD PUSH0 PUSH1 0x40 MLOAD DUP1 DUP4 SUB DUP2 DUP7 GAS STATICCALL ISZERO DUP1 ISZERO PUSH2 0x752 JUMPI RETURNDATASIZE PUSH0 DUP1 RETURNDATACOPY RETURNDATASIZE PUSH0 REVERT JUMPDEST POP POP POP POP PUSH1 0x40 MLOAD RETURNDATASIZE PUSH0 DUP3 RETURNDATACOPY PUSH1 0x1F RETURNDATASIZE SWAP1 DUP2 ADD PUSH1 0x1F NOT AND DUP3 ADD PUSH1 0x40 MSTORE PUSH2 0x779 SWAP2 SWAP1 DUP2 ADD SWAP1 PUSH2 0xD8A JUMP JUMPDEST SWAP5 POP POP POP POP POP DUP1 PUSH2 0x7C4 JUMPI PUSH1 0x40 MLOAD PUSH3 0x461BCD PUSH1 0xE5 SHL DUP2 MSTORE PUSH1 0x20 PUSH1 0x4 DUP3 ADD MSTORE PUSH1 0x15 PUSH1 0x24 DUP3 ADD MSTORE PUSH21 0x10D050881A5CC81B9BDD081858D8DC99591A5D1959 PUSH1 0x5A SHL PUSH1 0x44 DUP3 ADD MSTORE PUSH1 0x64 ADD PUSH2 0x3B4 JUMP JUMPDEST PUSH0 DUP4 DUP2 MSTORE PUSH1 0x3 PUSH1 0x20 MSTORE PUSH1 0x40 SWAP1 KECCAK256 PUSH1 0x1 DUP2 ADD SLOAD PUSH1 0x1 PUSH1 0xA0 SHL SWAP1 DIV PUSH1 0xFF AND PUSH2 0x824 JUMPI PUSH1 0x40 MLOAD PUSH3 0x461BCD PUSH1 0xE5 SHL DUP2 MSTORE PUSH1 0x20 PUSH1 0x4 DUP3 ADD MSTORE PUSH1 0x15 PUSH1 0x24 DUP3 ADD MSTORE PUSH21 0x41756374696F6E206973206E6F7420616374697665 PUSH1 0x58 SHL PUSH1 0x44 DUP3 ADD MSTORE PUSH1 0x64 ADD PUSH2 0x3B4 JUMP JUMPDEST PUSH0 DUP4 GT PUSH2 0x86A JUMPI PUSH1 0x40 MLOAD PUSH3 0x461BCD PUSH1 0xE5 SHL DUP2 MSTORE PUSH1 0x20 PUSH1 0x4 DUP3 ADD MSTORE PUSH1 0x14 PUSH1 0x24 DUP3 ADD MSTORE PUSH20 0x115B9D195C8818481D985B1A5908185B5BDD5B9D PUSH1 0x62 SHL PUSH1 0x44 DUP3 ADD MSTORE PUSH1 0x64 ADD PUSH2 0x3B4 JUMP JUMPDEST PUSH1 0x3 DUP2 ADD DUP1 SLOAD SWAP1 PUSH0 PUSH2 0x87B DUP4 PUSH2 0xE1D JUMP JUMPDEST SWAP1 SWAP2 SSTORE POP POP PUSH1 0x40 DUP1 MLOAD PUSH1 0x60 DUP2 ADD DUP3 MSTORE CALLER DUP2 MSTORE PUSH1 0x20 DUP1 DUP3 ADD DUP7 DUP2 MSTORE PUSH0 DUP4 DUP6 ADD DUP2 DUP2 MSTORE PUSH1 0x3 DUP8 ADD SLOAD DUP3 MSTORE PUSH1 0x4 DUP8 ADD SWAP1 SWAP4 MSTORE SWAP4 SWAP1 SWAP4 KECCAK256 SWAP2 MLOAD DUP3 SLOAD PUSH1 0x1 PUSH1 0x1 PUSH1 0xA0 SHL SUB NOT AND PUSH1 0x1 PUSH1 0x1 PUSH1 0xA0 SHL SUB SWAP1 SWAP2 AND OR DUP3 SSTORE SWAP2 MLOAD PUSH1 0x1 DUP3 ADD SSTORE SWAP1 MLOAD PUSH1 0x2 SWAP1 SWAP2 ADD DUP1 SLOAD PUSH1 0xFF NOT AND SWAP2 ISZERO ISZERO SWAP2 SWAP1 SWAP2 OR SWAP1 SSTORE PUSH1 0x5 DUP2 ADD SLOAD DUP4 LT ISZERO PUSH2 0x905 JUMPI PUSH1 0x5 DUP2 ADD DUP4 SWAP1 SSTORE PUSH1 0x3 DUP2 ADD SLOAD PUSH1 0x2 DUP3 ADD SSTORE JUMPDEST PUSH1 0x3 DUP2 ADD SLOAD PUSH1 0x40 DUP1 MLOAD DUP7 DUP2 MSTORE PUSH1 0x20 DUP2 ADD SWAP3 SWAP1 SWAP3 MSTORE DUP2 ADD DUP5 SWAP1 MSTORE CALLER SWAP1 PUSH32 0x68CA22619736CE52A19D1B37CFEEA709881038C1F6C94062B4CF60527B5E3A12 SWAP1 PUSH1 0x60 ADD PUSH2 0x5BA JUMP JUMPDEST PUSH1 0x1 SLOAD PUSH1 0x40 MLOAD PUSH4 0xAA7E41C5 PUSH1 0xE0 SHL DUP2 MSTORE CALLER PUSH1 0x4 DUP3 ADD MSTORE PUSH1 0x1 PUSH1 0x1 PUSH1 0xA0 SHL SUB SWAP1 SWAP2 AND SWAP1 PUSH4 0xAA7E41C5 SWAP1 PUSH1 0x24 ADD PUSH1 0x20 PUSH1 0x40 MLOAD DUP1 DUP4 SUB DUP2 DUP7 GAS STATICCALL ISZERO DUP1 ISZERO PUSH2 0x990 JUMPI RETURNDATASIZE PUSH0 DUP1 RETURNDATACOPY RETURNDATASIZE PUSH0 REVERT JUMPDEST POP POP POP POP PUSH1 0x40 MLOAD RETURNDATASIZE PUSH1 0x1F NOT PUSH1 0x1F DUP3 ADD AND DUP3 ADD DUP1 PUSH1 0x40 MSTORE POP DUP2 ADD SWAP1 PUSH2 0x9B4 SWAP2 SWAP1 PUSH2 0xCD2 JUMP JUMPDEST PUSH2 0xA1C JUMPI PUSH1 0x40 MLOAD PUSH3 0x461BCD PUSH1 0xE5 SHL DUP2 MSTORE PUSH1 0x20 PUSH1 0x4 DUP3 ADD MSTORE PUSH1 0x33 PUSH1 0x24 DUP3 ADD MSTORE PUSH32 0x4F6E6C792072656769737465726564206D616E75666163747572657273206361 PUSH1 0x44 DUP3 ADD MSTORE PUSH19 0x3710393AB7103A3434B990333AB731BA34B7B7 PUSH1 0x69 SHL PUSH1 0x64 DUP3 ADD MSTORE PUSH1 0x84 ADD PUSH2 0x3B4 JUMP JUMPDEST PUSH1 0x1 SLOAD PUSH1 0x40 MLOAD PUSH4 0x4DA3B9C7 PUSH1 0xE0 SHL DUP2 MSTORE PUSH1 0x4 DUP2 ADD DUP4 SWAP1 MSTORE PUSH0 SWAP2 PUSH1 0x1 PUSH1 0x1 PUSH1 0xA0 SHL SUB AND SWAP1 PUSH4 0x4DA3B9C7 SWAP1 PUSH1 0x24 ADD PUSH0 PUSH1 0x40 MLOAD DUP1 DUP4 SUB DUP2 DUP7 GAS STATICCALL ISZERO DUP1 ISZERO PUSH2 0xA62 JUMPI RETURNDATASIZE PUSH0 DUP1 RETURNDATACOPY RETURNDATASIZE PUSH0 REVERT JUMPDEST POP POP POP POP PUSH1 0x40 MLOAD RETURNDATASIZE PUSH0 DUP3 RETURNDATACOPY PUSH1 0x1F RETURNDATASIZE SWAP1 DUP2 ADD PUSH1 0x1F NOT AND DUP3 ADD PUSH1 0x40 MSTORE PUSH2 0xA89 SWAP2 SWAP1 DUP2 ADD SWAP1 PUSH2 0xE41 JUMP JUMPDEST POP SWAP1 SWAP3 POP POP POP PUSH1 0x1 PUSH1 0x1 PUSH1 0xA0 SHL SUB DUP2 AND CALLER EQ PUSH2 0xAFE JUMPI PUSH1 0x40 MLOAD PUSH3 0x461BCD PUSH1 0xE5 SHL DUP2 MSTORE PUSH1 0x20 PUSH1 0x4 DUP3 ADD MSTORE PUSH1 0x2E PUSH1 0x24 DUP3 ADD MSTORE PUSH32 0x596F7520617265206E6F7420746865206D616E756661637475726572206F6620 PUSH1 0x44 DUP3 ADD MSTORE PUSH14 0x1D1A1A5CC8195C5D5A5C1B595B9D PUSH1 0x92 SHL PUSH1 0x64 DUP3 ADD MSTORE PUSH1 0x84 ADD PUSH2 0x3B4 JUMP JUMPDEST PUSH1 0x2 DUP1 SLOAD SWAP1 PUSH0 PUSH2 0xB0D DUP4 PUSH2 0xE1D JUMP JUMPDEST SWAP1 SWAP2 SSTORE POP POP PUSH1 0x2 DUP1 SLOAD PUSH0 SWAP1 DUP2 MSTORE PUSH1 0x3 PUSH1 0x20 SWAP1 DUP2 MSTORE PUSH1 0x40 SWAP2 DUP3 SWAP1 KECCAK256 DUP6 DUP2 SSTORE PUSH1 0x1 DUP2 ADD DUP1 SLOAD PUSH1 0xFF PUSH1 0xA0 SHL NOT CALLER SWAP1 DUP2 AND PUSH1 0x1 PUSH1 0x1 PUSH1 0xA8 SHL SUB NOT SWAP1 SWAP3 AND SWAP2 SWAP1 SWAP2 OR PUSH1 0x1 PUSH1 0xA0 SHL OR SWAP1 SWAP2 SSTORE PUSH0 NOT PUSH1 0x5 DUP4 ADD SSTORE SWAP4 SLOAD DUP4 MLOAD SWAP1 DUP2 MSTORE SWAP2 DUP3 ADD DUP7 SWAP1 MSTORE SWAP3 SWAP2 PUSH32 0x9F73AAF9708695ADD4256F1C2D3A7806702DE1D16FE47FFBE80CB5DF9F6D8D20 SWAP2 ADD PUSH1 0x40 MLOAD DUP1 SWAP2 SUB SWAP1 LOG2 POP POP POP JUMP JUMPDEST PUSH2 0xBA1 PUSH2 0xBD6 JUMP JUMPDEST PUSH1 0x1 PUSH1 0x1 PUSH1 0xA0 SHL SUB DUP2 AND PUSH2 0xBCA JUMPI PUSH1 0x40 MLOAD PUSH4 0x1E4FBDF7 PUSH1 0xE0 SHL DUP2 MSTORE PUSH0 PUSH1 0x4 DUP3 ADD MSTORE PUSH1 0x24 ADD PUSH2 0x3B4 JUMP JUMPDEST PUSH2 0xBD3 DUP2 PUSH2 0xC02 JUMP JUMPDEST POP JUMP JUMPDEST PUSH0 SLOAD PUSH1 0x1 PUSH1 0x1 PUSH1 0xA0 SHL SUB AND CALLER EQ PUSH2 0x356 JUMPI PUSH1 0x40 MLOAD PUSH4 0x118CDAA7 PUSH1 0xE0 SHL DUP2 MSTORE CALLER PUSH1 0x4 DUP3 ADD MSTORE PUSH1 0x24 ADD PUSH2 0x3B4 JUMP JUMPDEST PUSH0 DUP1 SLOAD PUSH1 0x1 PUSH1 0x1 PUSH1 0xA0 SHL SUB DUP4 DUP2 AND PUSH1 0x1 PUSH1 0x1 PUSH1 0xA0 SHL SUB NOT DUP4 AND DUP2 OR DUP5 SSTORE PUSH1 0x40 MLOAD SWAP2 SWAP1 SWAP3 AND SWAP3 DUP4 SWAP2 PUSH32 0x8BE0079C531659141344CD1FD0A4F28419497F9722A3DAAFE3B4186F6B6457E0 SWAP2 SWAP1 LOG3 POP POP JUMP JUMPDEST PUSH0 DUP1 PUSH1 0x40 DUP4 DUP6 SUB SLT ISZERO PUSH2 0xC62 JUMPI PUSH0 DUP1 REVERT JUMPDEST POP POP DUP1 CALLDATALOAD SWAP3 PUSH1 0x20 SWAP1 SWAP2 ADD CALLDATALOAD SWAP2 POP JUMP JUMPDEST PUSH0 PUSH1 0x20 DUP3 DUP5 SUB SLT ISZERO PUSH2 0xC81 JUMPI PUSH0 DUP1 REVERT JUMPDEST POP CALLDATALOAD SWAP2 SWAP1 POP JUMP JUMPDEST PUSH1 0x1 PUSH1 0x1 PUSH1 0xA0 SHL SUB DUP2 AND DUP2 EQ PUSH2 0xBD3 JUMPI PUSH0 DUP1 REVERT JUMPDEST PUSH0 PUSH1 0x20 DUP3 DUP5 SUB SLT ISZERO PUSH2 0xCAC JUMPI PUSH0 DUP1 REVERT JUMPDEST DUP2 CALLDATALOAD PUSH2 0xCB7 DUP2 PUSH2 0xC88 JUMP JUMPDEST SWAP4 SWAP3 POP POP POP JUMP JUMPDEST DUP1 MLOAD DUP1 ISZERO ISZERO DUP2 EQ PUSH2 0xCCD JUMPI PUSH0 DUP1 REVERT JUMPDEST SWAP2 SWAP1 POP JUMP JUMPDEST PUSH0 PUSH1 0x20 DUP3 DUP5 SUB SLT ISZERO PUSH2 0xCE2 JUMPI PUSH0 DUP1 REVERT JUMPDEST PUSH2 0xCB7 DUP3 PUSH2 0xCBE JUMP JUMPDEST PUSH4 0x4E487B71 PUSH1 0xE0 SHL PUSH0 MSTORE PUSH1 0x41 PUSH1 0x4 MSTORE PUSH1 0x24 PUSH0 REVERT JUMPDEST PUSH0 DUP3 PUSH1 0x1F DUP4 ADD SLT PUSH2 0xD0E JUMPI PUSH0 DUP1 REVERT JUMPDEST DUP2 MLOAD PUSH8 0xFFFFFFFFFFFFFFFF DUP2 GT ISZERO PUSH2 0xD28 JUMPI PUSH2 0xD28 PUSH2 0xCEB JUMP JUMPDEST PUSH1 0x40 MLOAD PUSH1 0x1F DUP3 ADD PUSH1 0x1F NOT SWAP1 DUP2 AND PUSH1 0x3F ADD AND DUP2 ADD PUSH8 0xFFFFFFFFFFFFFFFF DUP2 GT DUP3 DUP3 LT OR ISZERO PUSH2 0xD57 JUMPI PUSH2 0xD57 PUSH2 0xCEB JUMP JUMPDEST PUSH1 0x40 MSTORE DUP2 DUP2 MSTORE DUP4 DUP3 ADD PUSH1 0x20 ADD DUP6 LT ISZERO PUSH2 0xD6E JUMPI PUSH0 DUP1 REVERT JUMPDEST DUP2 PUSH1 0x20 DUP6 ADD PUSH1 0x20 DUP4 ADD MCOPY PUSH0 SWAP2 DUP2 ADD PUSH1 0x20 ADD SWAP2 SWAP1 SWAP2 MSTORE SWAP4 SWAP3 POP POP POP JUMP JUMPDEST PUSH0 DUP1 PUSH0 DUP1 PUSH0 PUSH1 0xA0 DUP7 DUP9 SUB SLT ISZERO PUSH2 0xD9E JUMPI PUSH0 DUP1 REVERT JUMPDEST DUP6 MLOAD PUSH8 0xFFFFFFFFFFFFFFFF DUP2 GT ISZERO PUSH2 0xDB4 JUMPI PUSH0 DUP1 REVERT JUMPDEST PUSH2 0xDC0 DUP9 DUP3 DUP10 ADD PUSH2 0xCFF JUMP JUMPDEST SWAP6 POP POP PUSH1 0x20 DUP7 ADD MLOAD PUSH2 0xDD1 DUP2 PUSH2 0xC88 JUMP JUMPDEST PUSH1 0x40 DUP8 ADD MLOAD SWAP1 SWAP5 POP PUSH8 0xFFFFFFFFFFFFFFFF DUP2 GT ISZERO PUSH2 0xDED JUMPI PUSH0 DUP1 REVERT JUMPDEST PUSH2 0xDF9 DUP9 DUP3 DUP10 ADD PUSH2 0xCFF JUMP JUMPDEST PUSH1 0x60 DUP9 ADD MLOAD SWAP1 SWAP5 POP SWAP3 POP PUSH2 0xE11 SWAP1 POP PUSH1 0x80 DUP8 ADD PUSH2 0xCBE JUMP JUMPDEST SWAP1 POP SWAP3 SWAP6 POP SWAP3 SWAP6 SWAP1 SWAP4 POP JUMP JUMPDEST PUSH0 PUSH1 0x1 DUP3 ADD PUSH2 0xE3A JUMPI PUSH4 0x4E487B71 PUSH1 0xE0 SHL PUSH0 MSTORE PUSH1 0x11 PUSH1 0x4 MSTORE PUSH1 0x24 PUSH0 REVERT JUMPDEST POP PUSH1 0x1 ADD SWAP1 JUMP JUMPDEST PUSH0 DUP1 PUSH0 DUP1 PUSH1 0x80 DUP6 DUP8 SUB SLT ISZERO PUSH2 0xE54 JUMPI PUSH0 DUP1 REVERT JUMPDEST DUP5 MLOAD PUSH1 0x2 DUP2 LT PUSH2 0xE62 JUMPI PUSH0 DUP1 REVERT JUMPDEST PUSH1 0x20 DUP7 ADD MLOAD SWAP1 SWAP5 POP PUSH2 0xE73 DUP2 PUSH2 0xC88 JUMP JUMPDEST PUSH1 0x40 DUP7 ADD MLOAD SWAP1 SWAP4 POP PUSH8 0xFFFFFFFFFFFFFFFF DUP2 GT ISZERO PUSH2 0xE8F JUMPI PUSH0 DUP1 REVERT JUMPDEST PUSH2 0xE9B DUP8 DUP3 DUP9 ADD PUSH2 0xCFF JUMP JUMPDEST PUSH1 0x60 SWAP7 SWAP1 SWAP7 ADD MLOAD SWAP5 SWAP8 SWAP4 SWAP7 POP POP POP POP JUMP INVALID LOG2 PUSH5 0x6970667358 0x22 SLT KECCAK256 0x2C 0xEA 0xB8 0xE3 PUSH1 0x2F 0xEE 0xE3 CODECOPY 0x2E DELEGATECALL SWAP14 0xDF 0x23 PUSH7 0x415AC5929F92CF SWAP15 0xCF 0xAB 0xDE 0xEA 0xAE 0xA5 EXTCODEHASH SMOD MULMOD PUSH5 0x736F6C6343 STOP ADDMOD BYTE STOP CALLER "
		},
		"gasEstimates": {
			"creation": {
				"codeDepositCost": "762000",
				"executionCost": "infinite",
				"totalCost": "infinite"
			},
			"external": {
				"auctionCounter()": "2294",
				"auctions(uint256)": "11106",
				"createAuction(uint256)": "infinite",
				"getAuctionDetails(uint256)": "6893",
				"getBidDetails(uint256,uint256)": "6930",
				"getWinningCAB(uint256)": "6830",
				"owner()": "2385",
				"renounceOwnership()": "infinite",
				"selectBestBid(uint256)": "infinite",
				"submitBid(uint256,uint256)": "infinite",
				"transferOwnership(address)": "infinite"
			}
		},
		"methodIdentifiers": {
			"auctionCounter()": "a7e76644",
			"auctions(uint256)": "571a26a0",
			"createAuction(uint256)": "d5563f31",
			"getAuctionDetails(uint256)": "f20e5e35",
			"getBidDetails(uint256,uint256)": "1c5e1e1c",
			"getWinningCAB(uint256)": "b3ea0234",
			"owner()": "8da5cb5b",
			"renounceOwnership()": "715018a6",
			"selectBestBid(uint256)": "9a3b26f6",
			"submitBid(uint256,uint256)": "b821da1b",
			"transferOwnership(address)": "f2fde38b"
		}
	},
	"abi": [
		{
			"inputs": [
				{
					"internalType": "address",
					"name": "registrationAddress",
					"type": "address"
				}
			],
			"stateMutability": "nonpayable",
			"type": "constructor"
		},
		{
			"inputs": [
				{
					"internalType": "address",
					"name": "owner",
					"type": "address"
				}
			],
			"name": "OwnableInvalidOwner",
			"type": "error"
		},
		{
			"inputs": [
				{
					"internalType": "address",
					"name": "account",
					"type": "address"
				}
			],
			"name": "OwnableUnauthorizedAccount",
			"type": "error"
		},
		{
			"anonymous": false,
			"inputs": [
				{
					"indexed": false,
					"internalType": "uint256",
					"name": "auctionId",
					"type": "uint256"
				},
				{
					"indexed": false,
					"internalType": "uint256",
					"name": "bidId",
					"type": "uint256"
				},
				{
					"indexed": true,
					"internalType": "address",
					"name": "CAB",
					"type": "address"
				},
				{
					"indexed": false,
					"internalType": "uint256",
					"name": "amount",
					"type": "uint256"
				}
			],
			"name": "BestBidSelected",
			"type": "event"
		},
		{
			"anonymous": false,
			"inputs": [
				{
					"indexed": false,
					"internalType": "uint256",
					"name": "auctionId",
					"type": "uint256"
				},
				{
					"indexed": false,
					"internalType": "uint256",
					"name": "equipmentId",
					"type": "uint256"
				},
				{
					"indexed": true,
					"internalType": "address",
					"name": "manufacturer",
					"type": "address"
				}
			],
			"name": "NewAuction",
			"type": "event"
		},
		{
			"anonymous": false,
			"inputs": [
				{
					"indexed": false,
					"internalType": "uint256",
					"name": "auctionId",
					"type": "uint256"
				},
				{
					"indexed": false,
					"internalType": "uint256",
					"name": "bidId",
					"type": "uint256"
				},
				{
					"indexed": true,
					"internalType": "address",
					"name": "CAB",
					"type": "address"
				},
				{
					"indexed": false,
					"internalType": "uint256",
					"name": "amount",
					"type": "uint256"
				}
			],
			"name": "NewBid",
			"type": "event"
		},
		{
			"anonymous": false,
			"inputs": [
				{
					"indexed": true,
					"internalType": "address",
					"name": "previousOwner",
					"type": "address"
				},
				{
					"indexed": true,
					"internalType": "address",
					"name": "newOwner",
					"type": "address"
				}
			],
			"name": "OwnershipTransferred",
			"type": "event"
		},
		{
			"inputs": [],
			"name": "auctionCounter",
			"outputs": [
				{
					"internalType": "uint256",
					"name": "",
					"type": "uint256"
				}
			],
			"stateMutability": "view",
			"type": "function"
		},
		{
			"inputs": [
				{
					"internalType": "uint256",
					"name": "",
					"type": "uint256"
				}
			],
			"name": "auctions",
			"outputs": [
				{
					"internalType": "uint256",
					"name": "equipmentId",
					"type": "uint256"
				},
				{
					"internalType": "address",
					"name": "manufacturer",
					"type": "address"
				},
				{
					"internalType": "bool",
					"name": "active",
					"type": "bool"
				},
				{
					"internalType": "uint256",
					"name": "bestBidId",
					"type": "uint256"
				},
				{
					"internalType": "uint256",
					"name": "bidCounter",
					"type": "uint256"
				},
				{
					"internalType": "uint256",
					"name": "bestBidAmount",
					"type": "uint256"
				}
			],
			"stateMutability": "view",
			"type": "function"
		},
		{
			"inputs": [
				{
					"internalType": "uint256",
					"name": "_equipmentId",
					"type": "uint256"
				}
			],
			"name": "createAuction",
			"outputs": [],
			"stateMutability": "nonpayable",
			"type": "function"
		},
		{
			"inputs": [
				{
					"internalType": "uint256",
					"name": "_auctionId",
					"type": "uint256"
				}
			],
			"name": "getAuctionDetails",
			"outputs": [
				{
					"internalType": "uint256",
					"name": "",
					"type": "uint256"
				},
				{
					"internalType": "address",
					"name": "",
					"type": "address"
				},
				{
					"internalType": "bool",
					"name": "",
					"type": "bool"
				},
				{
					"internalType": "uint256",
					"name": "",
					"type": "uint256"
				}
			],
			"stateMutability": "view",
			"type": "function"
		},
		{
			"inputs": [
				{
					"internalType": "uint256",
					"name": "_auctionId",
					"type": "uint256"
				},
				{
					"internalType": "uint256",
					"name": "_bidId",
					"type": "uint256"
				}
			],
			"name": "getBidDetails",
			"outputs": [
				{
					"internalType": "address",
					"name": "",
					"type": "address"
				},
				{
					"internalType": "uint256",
					"name": "",
					"type": "uint256"
				},
				{
					"internalType": "bool",
					"name": "",
					"type": "bool"
				}
			],
			"stateMutability": "view",
			"type": "function"
		},
		{
			"inputs": [
				{
					"internalType": "uint256",
					"name": "_equipmentId",
					"type": "uint256"
				}
			],
			"name": "getWinningCAB",
			"outputs": [
				{
					"internalType": "address",
					"name": "",
					"type": "address"
				}
			],
			"stateMutability": "view",
			"type": "function"
		},
		{
			"inputs": [],
			"name": "owner",
			"outputs": [
				{
					"internalType": "address",
					"name": "",
					"type": "address"
				}
			],
			"stateMutability": "view",
			"type": "function"
		},
		{
			"inputs": [],
			"name": "renounceOwnership",
			"outputs": [],
			"stateMutability": "nonpayable",
			"type": "function"
		},
		{
			"inputs": [
				{
					"internalType": "uint256",
					"name": "_auctionId",
					"type": "uint256"
				}
			],
			"name": "selectBestBid",
			"outputs": [],
			"stateMutability": "payable",
			"type": "function"
		},
		{
			"inputs": [
				{
					"internalType": "uint256",
					"name": "_auctionId",
					"type": "uint256"
				},
				{
					"internalType": "uint256",
					"name": "_amount",
					"type": "uint256"
				}
			],
			"name": "submitBid",
			"outputs": [],
			"stateMutability": "nonpayable",
			"type": "function"
		},
		{
			"inputs": [
				{
					"internalType": "address",
					"name": "newOwner",
					"type": "address"
				}
			],
			"name": "transferOwnership",
			"outputs": [],
			"stateMutability": "nonpayable",
			"type": "function"
		}
	]
}